{
  "_format": "hh-sol-artifact-1",
  "contractName": "Account",
  "sourceName": "contracts/Account.sol",
  "abi": [
    {
      "inputs": [
        {
          "components": [
            {
              "internalType": "address",
              "name": "sender",
              "type": "address"
            },
            {
              "internalType": "address",
              "name": "contractAddress",
              "type": "address"
            },
            {
              "internalType": "uint256",
              "name": "nonce",
              "type": "uint256"
            },
            {
              "internalType": "uint256",
              "name": "value",
              "type": "uint256"
            },
            {
              "internalType": "bytes",
              "name": "callData",
              "type": "bytes"
            },
            {
              "internalType": "bytes",
              "name": "signature",
              "type": "bytes"
            }
          ],
          "internalType": "struct UserOperation",
          "name": "userOp",
          "type": "tuple"
        }
      ],
      "name": "handleOps",
      "outputs": [],
      "stateMutability": "nonpayable",
      "type": "function"
    },
    {
      "inputs": [
        {
          "internalType": "uint256",
          "name": "amount",
          "type": "uint256"
        }
      ],
      "name": "payGas",
      "outputs": [],
      "stateMutability": "nonpayable",
      "type": "function"
    },
    {
      "stateMutability": "payable",
      "type": "receive"
    }
  ],
  "bytecode": "0x608060405234801561001057600080fd5b506105cf806100206000396000f3fe60806040526004361061002d5760003560e01c806344b57f511461003957806348b10a021461006257610034565b3661003457005b600080fd5b34801561004557600080fd5b50610060600480360381019061005b9190610260565b61008b565b005b34801561006e57600080fd5b50610089600480360381019061008491906102b1565b6100fe565b005b6000803373ffffffffffffffffffffffffffffffffffffffff16836040516100b29061032b565b60006040518083038185875af1925050503d80600081146100ef576040519150601f19603f3d011682016040523d82523d6000602084013e6100f4565b606091505b5091509150505050565b4781606001351115610145576040517f08c379a000000000000000000000000000000000000000000000000000000000815260040161013c906103c3565b60405180910390fd5b60008082602001602081019061015b9190610441565b73ffffffffffffffffffffffffffffffffffffffff168360600135848060800190610186919061047d565b604051610194929190610514565b60006040518083038185875af1925050503d80600081146101d1576040519150601f19603f3d011682016040523d82523d6000602084013e6101d6565b606091505b50915091508161021b576040517f08c379a000000000000000000000000000000000000000000000000000000000815260040161021290610579565b60405180910390fd5b505050565b600080fd5b600080fd5b6000819050919050565b61023d8161022a565b811461024857600080fd5b50565b60008135905061025a81610234565b92915050565b60006020828403121561027657610275610220565b5b60006102848482850161024b565b91505092915050565b600080fd5b600060c082840312156102a8576102a761028d565b5b81905092915050565b6000602082840312156102c7576102c6610220565b5b600082013567ffffffffffffffff8111156102e5576102e4610225565b5b6102f184828501610292565b91505092915050565b600081905092915050565b50565b60006103156000836102fa565b915061032082610305565b600082019050919050565b600061033682610308565b9150819050919050565b600082825260208201905092915050565b7f526571756972696e67206d6f72652066756e647320746f206265207472616e7360008201527f6665727265640000000000000000000000000000000000000000000000000000602082015250565b60006103ad602683610340565b91506103b882610351565b604082019050919050565b600060208201905081810360008301526103dc816103a0565b9050919050565b600073ffffffffffffffffffffffffffffffffffffffff82169050919050565b600061040e826103e3565b9050919050565b61041e81610403565b811461042957600080fd5b50565b60008135905061043b81610415565b92915050565b60006020828403121561045757610456610220565b5b60006104658482850161042c565b91505092915050565b600080fd5b600080fd5b600080fd5b6000808335600160200384360303811261049a5761049961046e565b5b80840192508235915067ffffffffffffffff8211156104bc576104bb610473565b5b6020830192506001820236038313156104d8576104d7610478565b5b509250929050565b82818337600083830152505050565b60006104fb83856102fa565b93506105088385846104e0565b82840190509392505050565b60006105218284866104ef565b91508190509392505050565b7f546865207472616e73616374696f6e206661696c656400000000000000000000600082015250565b6000610563601683610340565b915061056e8261052d565b602082019050919050565b6000602082019050818103600083015261059281610556565b905091905056fea2646970667358221220e888e7073784b20668eeba7abfe827299647b94fa4a1e938e1ca9e0183e7841164736f6c63430008120033",
  "linkReferences": {},
  "deployedLinkReferences": {}
}