{
  "_format": "hh-sol-artifact-1",
  "contractName": "Entrypoint",
  "sourceName": "contracts/Entrypoint.sol",
  "abi": [
    {
      "inputs": [
        {
          "components": [
            {
              "internalType": "address",
              "name": "sender",
              "type": "address"
            },
            {
              "internalType": "address",
              "name": "contractAddress",
              "type": "address"
            },
            {
              "internalType": "uint256",
              "name": "nonce",
              "type": "uint256"
            },
            {
              "internalType": "uint256",
              "name": "value",
              "type": "uint256"
            },
            {
              "internalType": "bytes",
              "name": "callData",
              "type": "bytes"
            },
            {
              "internalType": "bytes",
              "name": "signature",
              "type": "bytes"
            }
          ],
          "internalType": "struct UserOperation",
          "name": "userOp",
          "type": "tuple"
        }
      ],
      "name": "handleOps",
      "outputs": [],
      "stateMutability": "nonpayable",
      "type": "function"
    },
    {
      "stateMutability": "payable",
      "type": "receive"
    }
  ],
  "bytecode": "0x608060405234801561001057600080fd5b506106dc806100206000396000f3fe6080604052600436106100225760003560e01c806348b10a021461002e57610029565b3661002957005b600080fd5b34801561003a57600080fd5b50610055600480360381019061005091906102c7565b610057565b005b60005a90506000826000016020810190610071919061036e565b90508073ffffffffffffffffffffffffffffffffffffffff166348b10a02846040518263ffffffff1660e01b81526004016100ac91906105b1565b600060405180830381600087803b1580156100c657600080fd5b505af11580156100da573d6000803e3d6000fd5b5050505060005a9050600081846100f19190610602565b90508273ffffffffffffffffffffffffffffffffffffffff166344b57f51826040518263ffffffff1660e01b815260040161012c9190610645565b600060405180830381600087803b15801561014657600080fd5b505af115801561015a573d6000803e3d6000fd5b50505050610167816101d7565b3373ffffffffffffffffffffffffffffffffffffffff168160405161018b90610691565b60006040518083038185875af1925050503d80600081146101c8576040519150601f19603f3d011682016040523d82523d6000602084013e6101cd565b606091505b5050505050505050565b61026d816040516024016101eb9190610645565b6040516020818303038152906040527ff82c50f1000000000000000000000000000000000000000000000000000000007bffffffffffffffffffffffffffffffffffffffffffffffffffffffff19166020820180517bffffffffffffffffffffffffffffffffffffffffffffffffffffffff8381831617835250505050610270565b50565b60008151905060006a636f6e736f6c652e6c6f679050602083016000808483855afa5050505050565b600080fd5b600080fd5b600080fd5b600060c082840312156102be576102bd6102a3565b5b81905092915050565b6000602082840312156102dd576102dc610299565b5b600082013567ffffffffffffffff8111156102fb576102fa61029e565b5b610307848285016102a8565b91505092915050565b600073ffffffffffffffffffffffffffffffffffffffff82169050919050565b600061033b82610310565b9050919050565b61034b81610330565b811461035657600080fd5b50565b60008135905061036881610342565b92915050565b60006020828403121561038457610383610299565b5b600061039284828501610359565b91505092915050565b60006103aa6020840184610359565b905092915050565b6103bb81610330565b82525050565b6000819050919050565b6103d4816103c1565b81146103df57600080fd5b50565b6000813590506103f1816103cb565b92915050565b600061040660208401846103e2565b905092915050565b610417816103c1565b82525050565b600080fd5b600080fd5b600080fd5b6000808335600160200384360303811261044957610448610427565b5b83810192508235915060208301925067ffffffffffffffff8211156104715761047061041d565b5b60018202360383131561048757610486610422565b5b509250929050565b600082825260208201905092915050565b82818337600083830152505050565b6000601f19601f8301169050919050565b60006104cc838561048f565b93506104d98385846104a0565b6104e2836104af565b840190509392505050565b600060c08301610500600084018461039b565b61050d60008601826103b2565b5061051b602084018461039b565b61052860208601826103b2565b5061053660408401846103f7565b610543604086018261040e565b5061055160608401846103f7565b61055e606086018261040e565b5061056c608084018461042c565b858303608087015261057f8382846104c0565b9250505061059060a084018461042c565b85830360a08701526105a38382846104c0565b925050508091505092915050565b600060208201905081810360008301526105cb81846104ed565b905092915050565b7f4e487b7100000000000000000000000000000000000000000000000000000000600052601160045260246000fd5b600061060d826103c1565b9150610618836103c1565b92508282039050818111156106305761062f6105d3565b5b92915050565b61063f816103c1565b82525050565b600060208201905061065a6000830184610636565b92915050565b600081905092915050565b50565b600061067b600083610660565b91506106868261066b565b600082019050919050565b600061069c8261066e565b915081905091905056fea2646970667358221220ee397bb154929a7779cd680804093a9b1ee00d28093124fdb000b67e8790ee3964736f6c63430008120033",
  "linkReferences": {},
  "deployedLinkReferences": {}
}